:020000040800F2
:1000000050F6002045010008EB1A0008E30B000839
:1000100041120008350A0008E7330008000000001C
:10002000000000000000000000000000A5290008FA
:10003000390A000800000000BB2500085D01000827
:100040005F0100085F0100085F0100085F01000810
:100050005F0100085F0100085F0100085F01000800
:100060005F0100085F0100085F0100085F010008F0
:100070005F0100085F0100085F0100085F010008E0
:100080005F0100085F0100085F0100085F010008D0
:100090005F0100085F0100085F0100085F010008C0
:1000A0005F010008792B00085F0100085F0100086C
:1000B0005F0100085F0100085F0100085F010008A0
:1000C0005F0100085F0100085F0100085F01000890
:1000D0005F010008C53100085F0100085F010008EA
:1000E0005F0100085F0100085F0100085F01000870
:1000F0005F0100085F0100085F0100085F01000860
:100100005F0100085F0100080D2C00085F01000876
:100110005F0100085F0100085F0100085F0100083F
:100120005F0100085F0100085F0100085F0100082F
:10013000DFF80CD000F018FC00480047CD3F000865
:1001400050F600200648804706480047FEE7FEE7D5
:10015000FEE7FEE7FEE7FEE7FEE7FEE7FEE7FEE777
:10016000B92A00083101000840EA01039B0703D0C7
:1001700009E008C9121F08C0042AFAD203E011F8E6
:10018000013B00F8013B521EF9D27047F0B480EAFF
:100190000102D40F4200B2EB410F02D202460846E0
:1001A00011464A0042D0C30DDDB2C1F3C752AD1AA9
:1001B000202D35DAC1F3160141F4000204B1524298
:1001C000C5F1200602FA06F12A411044B3EBD05FD4
:1001D00023D0C4B1012DA0EBC35009DCF0BC4FF01B
:1001E000004202EAC352DBB200F5000000F01ABB85
:1001F000400000F1807000EBC350A0F1807040EA35
:10020000D170490009E0490841EAC071A0EBC35030
:1002100000F50000400800EBC350F0BC00F0F9BA54
:100220006142012202EB4101001BF6E7F0BC70477E
:1002300081F00041AAE780F00040A7E780EA0102D0
:1002400010B502F00043400022D04A001FD0010E3A
:1002500001EB1261C0F35600C2F3560240F40000F5
:1002600042F40002A0FB022000047F39140400D0F5
:10027000401C50EA124001D44000491EC2B20C0694
:1002800004EBD010401C4008802A02D003E000207C
:1002900010BD20F00100002900DA0020184310BD35
:1002A00030B480EA010202F0004530F0004221F053
:1002B000004013D090B1C30DD40DC2F31601C0F3AA
:1002C0001600E41A41F4000140F400027D3491422A
:1002D00001D3641C00E04900002C02DA30BC00208D
:1002E00070474FF400000023914201D3891A034361
:1002F00040084FEA4101F7D151B1914202D14FF08C
:10030000004105E002D24FF0010101E06FF0010170
:1003100003EBC450284430BC00F07BBA2DE9FE4FFB
:10032000804681EA0300C00F0C46009021F0004196
:1003300023F00045B8EB0200A94105D24046214612
:1003400090461C460B46024623F00040104347D01F
:10035000270DC7F30A00C3F30A510290401A019017
:1003600040286BDAC3F3130040F4801B00989246D8
:1003700020B10023D2EB030A63EB0B0B0198594623
:10038000C0F14002504600F013FA06460D465046B2
:100390005946019A00F02BFA10EB08006141002445
:1003A00087EA115284EAE7731A4340D0009A62B395
:1003B000019A012A4FEA075215DC001B61EB02018A
:1003C0004FF0004202EA0752CDE90042001C41F51D
:1003D000801132462B4600F062FA03B0BDE8F08F80
:1003E00040462146F9E7001B61EB0201001C41F584
:1003F000801300185B412018A2F5001747EB03019A
:1004000040EAD570B6196D4111E06D084FEA360625
:1004100045EAC0754FEA0752001B61EB0201001C60
:1004200041F5801149084FEA300000195141324628
:100430002B4603B0BDE8F04F00F022BA009801222D
:1004400040000023D0EB020263EBE07300982146EA
:100450004FEAE074B8EB000061EB0401E9E783F0D8
:1004600000435BE781F0004158E72DE9FE4F81EA48
:10047000030404F0004421F0004100944FF0000B0D
:1004800023F0004350EA01045ED052EA03045BD03B
:10049000C3F30A54C1F30A552C44A4F2F334019473
:1004A000A0FB0254C1F3130141F48011C3F3130301
:1004B00043F4801301FB024400FB034E840A970AB5
:1004C00044EA815447EA8357A4FB076802958D0AE2
:1004D00005FB07854FEA932C04FB0C542705029D6E
:1004E0004FEA065847EA1637B5EB08056EEB070CDE
:1004F000870E920E47EA811742EA8312A7FB020198
:10050000B6EB0B0164EB00042B0D43EA0C335E18D1
:1005100044EB1C50DA465146E7FB0201C5F31304D5
:100520004FEA0B3343EA14534FEA0432019C43EA87
:100530000603A4F10C040294009CCDE900B400F081
:10054000AEF903B0BDE8F08F00200146F9E72DE9D0
:10055000F04D81EA030404F0004B21F000451446FD
:100560004FF0000A23F0004150EA050220D054EA7F
:1005700001021DD0C5F30A570246C5F31303C1F3A8
:100580001300C1F30A5640F4801543F48013A7EB1F
:100590000608101BD64608F2FD3873EB050002D39F
:1005A00008F1010801E092185B41B8F1000F03DA8D
:1005B00000200146BDE8F08D00204FF48011064672
:1005C00084460EE0171B73EB050705D3121B63EB84
:1005D000050306434CEA010C49084FEA3000921823
:1005E0005B4150EA0107EDD152EA030012D082EAE2
:1005F000040083EA0501084305D0101BAB4106D275
:100600000122002306E000224FF0004302E06FF0D9
:10061000010253101AEB06004CEB085110EB0A00D4
:1006200041EB0B01BDE8F04D00F02AB99623002202
:10063000114600F0F7B80EB5C10F80EAE07008442B
:10064000CA07002140F233438DE80E000A460B46EC
:1006500000F025F903B000BD00F0004220F000409A
:10066000C10DC0F3160040F400007F2901DA00201C
:100670007047962903DCC1F19601C84001E0963924
:100680008840002AF4D04042704720F00040C10D5D
:10069000C0F3160040F400007F2901DA0020704703
:1006A000962903DCC1F19601C8407047963988400D
:1006B000704770B5C1F30A5201F000450024C1F340
:1006C000130140F2FF3341F480119A4201DA002015
:1006D00070BD40F233439A42A2F2334203DC5242ED
:1006E00000F075F800E090402C43F1D0404270BD1E
:1006F00000F0004230F000400AD0C10D01F56071F9
:10070000C0F3160042EA0151C20840071143704786
:10071000002001467047000030B5041E71F100044E
:1007200004DB4FF00044404264EB0101141E73F1FE
:10073000000405DB1C464FF00043524263EB040308
:100740008B4208BF824230BD30B5041E71F10004F7
:1007500004DB4FF00044404264EB0101141E73F1CE
:10076000000405DB1C464FF00043524263EB0403D8
:10077000994208BF904230BD01F0004330B421F0EF
:10078000004150EA010206D00A0DA2F56072C1F3E1
:100790001301002A02DC30BC00207047440F44EAF9
:1007A000C104C100E01830BC00EBC25000F031B809
:1007B000202A04DB203A00FA02F100207047914021
:1007C000C2F1200320FA03F3194390407047202A16
:1007D00004DB203A21FA02F00021704721FA02F3EB
:1007E000D040C2F120029140084319467047202AA8
:1007F00006DBCB17203A41FA02F043EAE07306E049
:1008000041FA02F3D040C2F1200291400843194658
:1008100070470029A8BF7047401C490008BF20F05E
:100820000100704710B4B0FA80FC00FA0CF050EAF6
:10083000010404BF10BC704749B1CCF1200421FA77
:1008400004F411FA0CF118BF012121430843A3EB72
:100850000C01CB1D4FEA00614FEA102042BF00207F
:1008600010BC704700EBC35010440029A4BF10BC5B
:100870007047401C490008BF20F0010010BC7047C1
:1008800010B5141E73F1000408DA401C41F1000198
:1008900092185B411A4301D120F0010010BD2DE9EF
:1008A000F04D92469B4611B1B1FA81F202E0B0FAE6
:1008B00080F220329046FFF77BFF04460F4640EA65
:1008C0000A0041EA0B0153465A46084313D0114629
:1008D00053EA010019D0C8F140025046FFF777FFF4
:1008E00005460E46504659464246FFF761FF08430B
:1008F00005D0012004E020463946BDE8F08D0020F7
:10090000054346EAE0762C4337430A986305E40A38
:10091000A0EB08000022FD0A44EA47540A3002D541
:1009200000200146E9E7010510196941DDE90845A4
:1009300000196941BDE8F04DA2E770B521F0004310
:1009400003430CD0C1F30A550024D5EB040564EB36
:100950000403D617AD1AB34102DB0020014670BD77
:10096000201841EB025170BD064C074D06E0E068CF
:1009700040F0010394E8070098471034AC42F6D3E6
:10098000FFF7DAFBF8420008184300080EB540F202
:10099000334102910021CDE900110A460B46FFF7D1
:1009A0007EFF03B000BD000010B500F047F800F076
:1009B00043FB01F03BF901F02BFB01F0EBF801F0F8
:1009C000E1FA01F013F901F0FDFA00F0EFFB00F09D
:1009D000FDFB01F0E5FC472142F20F7002F09CF8AC
:1009E000472141F2873002F0E1F802F097FB012144
:1009F0000E4802F0B7F901210D4802F0B3F900F0FA
:100A0000B3FB00F01BF800F029FB00F077FB4FF47C
:100A1000A06001F0A3F8472141F2873002F0C6F848
:100A20000121024802F09EF910BD0000000C0040B8
:100A3000002C014000BFFEE77047000010B56FF0CA
:100A4000040002F025F80A4800680A49B0FBF1F0FA
:100A5000094908700846007800EB4001C1EBC0105E
:100A60004FF6FF7101EAC0000449088010BD000084
:100A70004800002000127A00200000202200002000
:100A800070B505460C4629464FF0784000F0FCFA58
:100A9000032003F053F908E021784FF07A4000F08A
:100AA000F3FA641C032003F049F920780028F3D1FD
:100AB00070BD2DE9F04102460025002600200023EC
:100AC0000024002791F803C00CF00F0591F803C033
:100AD0000CF0100CBCF1000F03D091F802C04CEAEE
:100AE000050591F800C0BCF1000F31D0146800205A
:100AF0002BE04FF0010C0CFA00F3B1F800C00CEA47
:100B000003069E4220D183004FF00F0C0CFA03F72E
:100B1000BC4305FA03FC4CEA040491F803C0BCF1A1
:100B2000280F06D14FF0010C0CFA00FCC2F814C0DB
:100B30000AE091F803C0BCF1480F05D14FF0010C59
:100B40000CFA00FCC2F810C0401C0828D1D3146075
:100B5000B1F800C0BCF1FF0F34DD546800202EE076
:100B600000F1080C4FF0010808FA0CF3B1F800C0CE
:100B70000CEA03069E4221D183004FF00F0C0CFAC1
:100B800003F7BC4305FA03FC4CEA040491F803C0E4
:100B9000BCF1280F05D100F1080C08FA0CF8C2F8D6
:100BA000148091F803C0BCF1480F07D100F1080C84
:100BB0004FF0010808FA0CF8C2F81080401C082811
:100BC000CED35460BDE8F0810246002093680B400C
:100BD0000BB1012000E000207047416170470161C6
:100BE000704700BFFEE700002DE9F0411021E84802
:100BF000FFF7EAFF00287DD1E6480078022806D0FA
:100C000003282BD0052850D0062874D177E0E2487D
:100C10000068FFF76DFD06460022E04BFFF77EFB04
:100C20000446FFF7A9FDDC49086008460068FFF7A5
:100C30005FFD04460022DA4BFFF786FD02D8D94853
:100C4000D5490860D8A19020FFF71AFFD248006864
:100C5000FFF702FD044603F003F978E0D44800688A
:100C6000FFF746FD06460022D24BFFF757FB04462E
:100C7000FFF782FDCE49086008460068FFF738FD9F
:100C800004460022CC4BFFF75FFD02D8CB48C84991
:100C90000860CBA18820FFF7F3FEC5480068FFF786
:100CA000DBFC044603F080F851E0BB480068FFF726
:100CB0001FFD06460022B94BFFF730FB0446FFF745
:100CC0005BFDB549086008460068FFF711FD044662
:100CD0000022BD4BFFF738FD02D8BC48AE49086082
:100CE000BBA19820FFF7CCFEAB480068FFF7B4FC2F
:100CF000044601E02CE029E003F00EF927E0A648C5
:100D00000068FFF7F5FC06460022A44BFFF706FB40
:100D10000446FFF731FDA049086008460068FFF768
:100D2000E7FC04460022A84BFFF70EFD02D8A748B7
:100D300099490860A6A19820FFF7A2FE964800688E
:100D4000FFF78AFC044603F0E7F800E000BF00BFAD
:100D500020218F48FFF738FF00287DD18D4800788B
:100D6000022806D003282BD0052850D0062874D19D
:100D700077E089480068FFF7BBFC06460022874BF6
:100D8000FFF76DFB0446FFF7F7FC83490860084650
:100D90000068FFF7ADFC044600228F4BFFF7BCFC58
:100DA00002D88E487C4908607FA19020FFF768FE3A
:100DB00079480068FFF750FC044603F051F878E0EA
:100DC0007B480068FFF794FC06460022794BFFF74A
:100DD00046FB0446FFF7D0FC7549086008460068EA
:100DE000FFF786FC044600221346FFF795FC02D865
:100DF00000206F49086072A18820FFF741FE6C480F
:100E00000068FFF729FC044602F0CEFF51E062487B
:100E10000068FFF76DFC06460022604BFFF71FFBE2
:100E20000446FFF7A9FC5C49086008460068FFF724
:100E30005FFC04460022684BFFF76EFC02D867484F
:100E40005549086062A19820FFF71AFE52480068D1
:100E5000FFF702FC044601E02CE029E003F05CF817
:100E600027E04D480068FFF743FC064600224B4B45
:100E7000FFF7F5FA0446FFF77FFC4749086008468C
:100E80000068FFF735FC04460022534BFFF744FC93
:100E900002D85248404908604DA19820FFF7F0FD64
:100EA0003D480068FFF7D8FB044603F035F800E042
:100EB00000BF00BF40213648FFF786FE00284CD116
:100EC00034480078072846D2DFE800F045040C14C7
:100ED0001C243D0001204249087042A18020FFF7F8
:100EE000CFFD39E001204149087041A18020FFF782
:100EF000C7FD31E001204049087040A18020FFF784
:100F0000BFFD29E001203F4908703FA18020FFF785
:100F1000B7FD21E001203E4908703E48007808B93D
:100F2000012000E000203B490870084600780128B5
:100F300004D139A18020FFF7A3FD03E038A1802070
:100F4000FFF79EFD08E001203749087037A1802097
:100F5000FFF796FD00E000BF00BF80210C48FFF7BF
:100F600033FE98B90B480078401C0A4908700846BF
:100F70000078062801DD002008702EA18620FFF7EA
:100F80007FFD04480178872002F0FEFEBDE8F08175
:100F900000080140180000202C0000200000144030
:100FA00000003E400000F0416C656E6774683A00D6
:100FB00030000020000024400080664000003443E0
:100FC000616E67656C3A00000080414000000C4291
:100FD0007261646975733A0000002E400000704130
:100FE0001900002073746172745431001A000020DB
:100FF00073746172745432001B0000207374617248
:10100000745433001C0000207374617274543400F3
:101010001D0000203400002073746172745235008A
:1010200073746172744C35001E0000207374617219
:10103000745436005400000008B50121042001F06A
:10104000CDFAF020ADF8000048208DF80300694685
:101050000148FFF72EFD08BD0008014008B5012139
:10106000402001F0BBFA1F20ADF8000010208DF8E1
:10107000030003208DF8020069460248FFF719FDBE
:1010800008BD0000001801402DE9F04104460D465E
:10109000264601211848FFF7A0FD05F0F0000004E6
:1010A00005F00F0100EB0130064301211248FFF764
:1010B00096FD002718E006F0004020B102210E48FE
:1010C000FFF78DFD03E002210B48FFF786FD0421A9
:1010D0000948FFF784FD022002F030FE0421064893
:1010E000FFF77BFD76007F1C182FE4D30121024817
:1010F000FFF773FDBDE8F0810018014010B5012134
:101100001848FFF76AFD08211648FFF766FD102111
:101110001448FFF762FD642002F010FE1021114810
:10112000FFF75DFD282002F009FE30214FF07840E6
:10113000FFF7AAFF282002F001FE0C214FF07840B3
:10114000FFF7A2FF282002F0F9FD01214FF07840BF
:10115000FFF79AFF282002F0F1FD282002F0EEFDB3
:1011600010BD00000018014008B50121082001F061
:1011700035FA2020ADF8000010208DF80300032080
:101180008DF8020069460848FFF793FC4020ADF84F
:10119000000010208DF8030003208DF8020069463E
:1011A0000148FFF786FC08BD000C014000200549FE
:1011B00048608860C8600861034808600020886251
:1011C000C8627047BC000020CDCCCC3D0020054952
:1011D00048608860C8600861034808600020886231
:1011E000C8627047FC000020CDCCCC3D08B5012181
:1011F000202001F0F3F94FF47F40ADF800001020FB
:101200008DF8030003208DF8020069460B48FFF7B4
:1012100050FC4FF4804009491031086040000860DC
:1012200040110860801008600001086040000860FC
:10123000801008608010086008BD000000140140A4
:1012400000BFFEE72DE9F04F85B04C480490002028
:10125000039002900190009001204949086049489C
:101260000068401D4749086008460068FFF7DEF93E
:1012700004464249FFF714F801900198FFF738FA45
:101280000646414A414BFFF7F0F80446FFF774FA6F
:1012900000904FF020403E4902F0F2FB06464FF02E
:1012A00040423C4BFFF7E1F80446FFF765FA029035
:1012B0000098FFF71DFA804602F0CCFE04460D466A
:1012C0000298FFF715FA064622462B46FFF7CDF89F
:1012D0008246FFF751FA0390002000F03FFD2E48B0
:1012E00000F036FD002000F02DFD2C4800F024FD1C
:1012F000039800F025FF2A4800F01CFF294800F061
:1013000013FF264800F00AFF2749486800F09EFCBA
:101310002549C8622549486800F08AFE2349C86209
:101320002148C06A40F2DC51884203DD4FF4166068
:101330001D49C8621C48C06A1D49884202DA1D481E
:101340001949C8621948C06A40F2DC51884203DD7D
:101350004FF416601549C8621448C06A144988429F
:1013600002DA14481149C862104AD16A0E4AD06A9A
:1013700000F077FB05B0BDE8F08F00000040B044FE
:1013800094812142380000206E861BF0F92119401B
:10139000AAAAEA3FDCA54C400000CC42000048422B
:1013A000000038429A99193EBC000020FC00002041
:1013B00024FAFFFFA0F6FFFF2DE9F04F85B04F485C
:1013C0000490002003900290019000904C48006827
:1013D000401D4B49086008460068FFF727F904469E
:1013E0004649FEF75DFF01900198FFF781F9064637
:1013F000444A454BFFF739F80446FFF7BDF9009022
:10140000424943480068FEF74BFF8246FFF770F9F8
:10141000804602F035FB06464FF000423D4BFFF799
:1014200024F80446FFF7A8F9029001203A49086021
:101430000098FFF75DF9804602F00CFE04460D4669
:101440000298FFF755F9064622462B46FFF70DF89E
:101450008246FFF791F9039001214FF07840FFF7A2
:1014600013FE039800F07AFC2C4800F071FC2C4825
:1014700000F068FC2B4800F05FFC2B4800F060FE99
:10148000264800F057FE002000F04EFE274800F0EE
:1014900045FE2749486800F0D9FB2549C86225491F
:1014A000486800F0C5FD2349C8622148C06AB0F50C
:1014B000166F02DD00201E49C8621D48C06A10F583
:1014C000166F02DA00201A49C8621A48C06AB0F5DD
:1014D000166F02DD00201749C8621648C06A10F571
:1014E000166F02DA00201349C862124AD16A104A04
:1014F000D06A00F0B6FA05B0BDE8F08F0040B04405
:101500003C0000206E861BF0F921194000001042BB
:101510002C000020B94B3840948121420000CC427D
:10152000CDCC4C3E0000204100004040000048422D
:10153000BC000020FC0000202DE9F04F9FB07C484B
:101540001D904C227B490AA8FEF70EFE0020099050
:101550000890079006900590049003900290012057
:1015600075490860754976480068FEF799FE04469B
:10157000FFF78BF8049073480068401D71490860BC
:1015800008460068FFF752F804466949FEF788FEEE
:1015900003900398FFF7ACF806466B4A6B4BFEF7D7
:1015A00064FF0446FFF7E8F802904FF000406849F6
:1015B00002F066FA06464FF00042664BFEF755FF12
:1015C0000446FFF7D9F805905D480068FFF790F8EA
:1015D000614A624BCDE90001FEF747FF804602F009
:1015E0005FFB06460F460598FFF782F882463246B3
:1015F0003B46FEF73AFF0446FFF7BEF80790504817
:101600000068FFF775F88046534A544BFEF72DFFEC
:10161000CDE9000102F01EFD04460D460598FFF7D6
:1016200067F8064622462B46FEF71FFF8246FFF765
:10163000A3F806900298FFF75BF8824602F00AFDD5
:1016400006460F460798FFF753F8804632463B465A
:10165000FEF70BFF0446FFF78FF809900AAA0498DB
:1016600052F820100298FEF791FD0190FFF740F824
:10167000064602F0EFFC804689460698FFF738F8E8
:10168000044642464B46FEF7F0FE8246FFF774F8EA
:101690000890099800F062FB314800F059FB31488E
:1016A00000F050FB254800F047FB089800F048FD8B
:1016B0002B4800F03FFD2B4800F036FD1F4800F09E
:1016C0002DFD2949486800F0C1FA2749C862274919
:1016D000486800F0ADFC2549C8622348C06AB0F5EF
:1016E000166F03DD4FF416601F49C8621E48C06ABA
:1016F00010F5166F02DA1E481B49C8621B48C06A03
:10170000B0F5166F03DD4FF416601849C86217482C
:10171000C06A10F5166F02DA15481449C862134AF8
:10172000D16A114AD06A00F09CF91FB0BDE8F08F71
:101730000040B044F4400008948121420000204160
:1017400030000020400000206E861BF0F921194077
:101750001CC7E13FB94B3840514CDE0033DF913FAD
:101760000000CC42CDCC4C3EBC000020FC00002050
:10177000A0F6FFFF2DE9F04145494868FEF76CFFF0
:10178000071E01DB394600E079420846FEF753FFA9
:10179000054600223F4BFEF7BFFF6DD23E49486829
:1017A000FEF75AFF041E01DB214600E061420846B5
:1017B000FEF741FF05460022364BFEF7ADFF5BD238
:1017C000012036490860002000F00AFA002000F0ED
:1017D00001FA002000F0F8F9002000F0EFF930489D
:1017E00000F01EFA002000F015FA002000F00AFCBC
:1017F000002000F0E1FB002000F0D8FB002000F00A
:10180000BDF9002000F0B4F9002000F0F5FB002045
:1018100000F0BAF9002000F0E9FB1D49486800F02B
:10182000A3FA1B49C8621C49486800F08FFC1A499A
:10183000C8621748C06AB0F5FA6F03DD4FF416604E
:101840001349C8621248C06A10F5FA6F02DA1548E7
:101850000F49C8621048C06AB0F5FA6F03DD4FF453
:1018600016600D49C8620C48C06A10F5FA6F08DAB4
:101870000C480949C86204E000200549C8620649CD
:10188000C8620349C86A002100F0EBF8BDE8F081A6
:10189000BC00002000804640FC00002094812142D2
:1018A0000000C842A0F6FFFF2DE9F04F89B05E4866
:1018B00008900020079006900590049003900290F5
:1018C00001205A4908605A480068401D584908607C
:1018D00008460068FEF7AAFE04465349FEF7E0FCFE
:1018E00003900398FEF704FF0646524A524BFEF758
:1018F000BCFD0446FEF740FF02904FF000404F4908
:1019000002F0BEF806464FF040424D4BFEF7ADFDEB
:101910000446FEF731FF05904A48007810B94A485E
:10192000049005E047480078012801D14748049019
:101930000298FEF7DDFE804602F08CFB04460D4661
:101940000598FEF7D5FE064622462B46FEF78DFD8E
:101950008246FEF711FF079004990298FEF716FCE5
:101960000190FEF7C5FE064602F074FB04460D46E4
:101970000598FEF7BDFE804622462B46FEF775FD14
:101980008246FEF7F9FE0690079800F0E7F9304826
:1019900000F0DEF9002000F0D5F9002000F0CCF9CD
:1019A000069800F0CDFB2A4800F0C4FB002000F0B0
:1019B000BBFB002000F0B2FB2649486800F046F966
:1019C0002449C8622449486800F032FB2249C862B1
:1019D0002048C06AB0F5166F03DD4FF416601D494C
:1019E000C8621C48C06A10F5166F02DA1B48194914
:1019F000C8621948C06AB0F5166F03DD4FF416606F
:101A00001549C8621448C06A10F5166F02DA134807
:101A10001149C862104AD16A0E4AD06A00F021F812
:101A200009B0BDE8F08F00000040B044948121422D
:101A3000440000206E861BF0F9211940E338E63F90
:101A4000DCA54C4034000020D80FC93FE2CB9640C3
:101A500000004842BC000020FC000020A0F6FFFF70
:101A6000704770B504460D46002C10DD261E01DBC4
:101A7000314600E0714288B200F0CAFC261E01DB4C
:101A8000314600E0714288B200F002FD11E0002C06
:101A90000FDA261E01DB314600E0714288B200F009
:101AA000A7FC261E01DB314600E0714288B200F03F
:101AB000DFFC002D06DDA8B200F08AFCA8B200F021
:101AC000B7FC11E0002D0FDA2E1E01DB314600E0DD
:101AD000714288B200F06CFC2E1E01DB314600E042
:101AE000714288B200F0B4FC70BD704770B500213F
:101AF00000230F22C47804B3154C246804F4E06476
:101B0000C4F5E064210AC1F10403CA40447804FA30
:101B100003F184781440214309010E4C0678A15545
:101B2000047804F01F050124AC4005786D11AD0068
:101B300005F1E025C5F8004109E0047804F01F052F
:101B40000124AC40044D0678761145F8264070BD5E
:101B50000CED00E000E400E080E100E00249014318
:101B6000024A1160704700000000FA050CED00E029
:101B70000149886170470000C001002001494861A7
:101B800070470000C0010020014948617047000013
:101B9000200200200020074908624862086148616D
:101BA000886108600021034A9160D16002481146B3
:101BB000C86170479001002000007A4401498861A3
:101BC0007047000090010020014948617047000003
:101BD0009001002001490861704700009001002039
:101BE000014908607047000090010020002007496B
:101BF0000862486208614861886108600021034A00
:101C00009160D16002481146C8617047F001002020
:101C100000007A440149486170470000F00100204B
:101C20000149086170470000F001002000200649CA
:101C3000C861086208614861886108600021024A41
:101C40009160D16070470000400100202DE9F04F05
:101C500089B08346354801685846FEF7ECFA82465B
:101C60005046FEF745FD04463048D0E9026332464F
:101C70002046FEF753FB2D4AC2E90201104600221E
:101C80002B4BD0E902412046FEF75EFD05D2002134
:101C90002748264AC2E902100DE02449D1E9024151
:101CA0000022244B2046FEF737FD04D200212148B4
:101CB0001E4AC2E902101D48C1695046FEF7B8FA33
:101CC00008901A48C0F81CA0014688690899FEF7D8
:101CD000B5FA0646FEF70CFDCDE906011349486941
:101CE000FEF706FDCDE900011048D0E90263324657
:101CF0000098FEF7BAFBCDE904010C49086951468A
:101D0000FEF79CFA0646FEF7F3FCCDE90201DDE999
:101D10000423FEF703FB0446DDE90623FEF7FEFA83
:101D20008046FEF7C6FC09B0BDE8F08F40010020F8
:101D300000409F4000409FC00149886170470000FB
:101D40004001002001494861704700004001002027
:101D50000149086170470000400100200149086006
:101D600070470000400100202DE9F14F8AB0824801
:101D700001680A98FEF75FFA81464846FEF7B8FC0C
:101D800005467D48D0E902733A462846FEF7C6FA72
:101D9000794AC2E902011146C869FEF7A9FC074663
:101DA0007548D0E902532A463846FEF7B5FC07D2FB
:101DB0007149C869FEF79CFC6F4AC2E9020119E04B
:101DC0006D48C06980F000452846FEF791FC074643
:101DD0006948D0E902532A463846FEF7B5FC09D2D5
:101DE0006548C06980F000452846FEF781FC624ADC
:101DF000C2E902016048016A4846FEF719FA0990F3
:101E00005D48C0F82090014688690999FEF716FAE6
:101E10000546FEF76DFCCDE9040157494869FEF718
:101E200067FCCDE900015448D0E902532A460098E6
:101E3000FEF71BFB074688464F4908694946FEF7EF
:101E4000FDF90546FEF754FC3A464346CDE902014A
:101E5000FEF764FA8246DDE90423FEF75FFACDE976
:101E60000601FEF789FC44498862444844490860F9
:101E7000084601680A98FEF7DEF904462046FEF798
:101E800037FC07463E48D0E902532A463846FEF75B
:101E900045FA3B4AC2E902011146C869FEF728FC2F
:101EA00007463748D0E902532A463846FEF734FC45
:101EB00007D23349C869FEF71BFC314AC2E9020167
:101EC00019E02F48C06980F000452846FEF710FC55
:101ED00007462B48D0E902532A463846FEF734FC21
:101EE00009D22748C06980F000452846FEF700FC6B
:101EF000234AC2E902012248016A2046FEF798F906
:101F000008901F480462014688690899FEF796F90F
:101F10000546FEF7EDFB82468B4619494869FEF7F8
:101F2000E7FB07461648D0E902532A463846FEF733
:101F30009CFACDE90201124908692146FEF77EF9B3
:101F40000546FEF7D5FBCDE90001DDE90223FEF7EA
:101F5000E5F952465B46CDE90401FEF7DFF9CDE92C
:101F60000601FEF709FC06498862886AFEF774FBE1
:101F70000BB0BDE8F08F0000900100200000FA4493
:101F8000F0010020002007490862486208614861AA
:101F9000886108600021034A9160D16002481146BF
:101FA000C8617047C001002000007A4401490861FF
:101FB00070470000C0010020014908607047000020
:101FC000C00100200020074908624862086148619A
:101FD000886108600021034A9160D160024811467F
:101FE000C86170472002002000007A4401498861DE
:101FF000704700002002002001490861704700007E
:10200000200200200149886170470000F001002093
:1020100000200649C861086208614861886108605B
:102020000021024A9160D1607047000068010020E1
:102030002DE9F04F89B08346354801685846FEF7D0
:10204000FAF882465046FEF753FB04463048D0E982
:10205000026332462046FEF761F92D4AC2E90201C9
:10206000104600222B4BD0E902412046FEF76CFBC4
:1020700005D200212748264AC2E902100DE0244972
:10208000D1E902410022244B2046FEF745FB04D251
:10209000002121481E4AC2E902101D48C16950466C
:1020A000FEF7C6F808901A48C0F81CA001468869D7
:1020B0000899FEF7C3F80646FEF71AFBCDE90601BC
:1020C00013494869FEF714FBCDE900011048D0E937
:1020D000026332460098FEF7C8F9CDE904010C49C5
:1020E00008695146FEF7AAF80646FEF701FBCDE95E
:1020F0000201DDE90423FEF711F90446DDE90623B8
:10210000FEF70CF98046FEF7D4FA09B0BDE8F08F6F
:102110006801002000409F4000409FC00149886145
:1021200070470000680100200149486170470000C5
:102130006801002001490861704700006801002023
:102140000149086070470000680100202DE9F14F47
:102150008AB0824801680A98FEF76DF881464846C1
:10216000FEF7C6FA05467D48D0E902733A4628468E
:10217000FEF7D4F8794AC2E902011146C869FEF7B0
:10218000B7FA07467548D0E902532A463846FEF7A3
:10219000C3FA07D27149C869FEF7AAFA6F4AC2E9C1
:1021A000020119E06D48C06980F000452846FEF73D
:1021B0009FFA07466948D0E902532A463846FEF797
:1021C000C3FA09D26548C06980F000452846FEF789
:1021D0008FFA624AC2E902016048016A4846FEF786
:1021E00027F809905D48C0F8209001468869099950
:1021F000FEF724F80546FEF77BFACDE904015749BE
:102200004869FEF775FACDE900015448D0E9025358
:102210002A460098FEF729F9074688464F4908697B
:102220004946FEF70BF80546FEF762FA3A46434682
:10223000CDE90201FEF772F88246DDE90423FEF7DC
:102240006DF8CDE90601FEF797FA444988624448E3
:1022500044490860414801680A98FDF7ECFF0446CC
:102260002046FEF745FA07463E48D0E902532A4683
:102270003846FEF753F83B4AC2E902011146C869E5
:10228000FEF736FA07463748D0E902532A46384661
:10229000FEF742FA07D23349C869FEF729FA314AF4
:1022A000C2E9020119E02F48C06980F000452846C4
:1022B000FEF71EFA07462B48D0E902532A46384655
:1022C000FEF742FA09D22748C06980F00045284647
:1022D000FEF70EFA234AC2E902012248016A2046AB
:1022E000FDF7A6FF08901F48046201468869089917
:1022F000FDF7A4FF0546FEF7FBF982468B46194918
:102300004869FEF7F5F907461648D0E902532A4610
:102310003846FEF7AAF8CDE90201124908692146BC
:10232000FDF78CFF0546FEF7E3F9CDE90001DDE995
:102330000223FDF7F3FF52465B46CDE90401FDF7AA
:10234000EDFFCDE90601FEF717FA07498862054956
:10235000886AFEF781F90BB0BDE8F08FC00100205C
:102360000000FA4420020020F001002008B50121FD
:10237000084600F023F90121042000F02FF90F2076
:10238000ADF8000018208DF8030003208DF802003E
:1023900069460248FEF78DFB08BD000000080140B9
:1023A00010B5FFF7E3FF00F083F8FEF71FFF10BD45
:1023B00010B504464FF48040044908608010091DA0
:1023C00008602146800400F050FE10BD101401404A
:1023D00010B504464FF48040044908608010091F7E
:1023E00008602146800400F040FE10BD1414014036
:1023F00010B504464FF40040044908608010091DE0
:1024000008602146400400F032FE10BD1014014067
:1024100010B504464FF40040044908608010091FBD
:1024200008602146400400F022FE10BD1414014053
:1024300010B504464FF48060044908604000091F4D
:1024400008602146C00400F014FE10BD14140140C1
:1024500010B504464FF48060044908604000091D2F
:1024600008602146C00400F004FE10BD10140140B5
:1024700010B504464FF48070044908604000091FFD
:1024800008602146400500F0EEFD10BD1414014027
:1024900010B504464FF48070044908604000091DDF
:1024A00008602146400500F0DEFD10BD101401401B
:1024B00000B587B00121084600F080F80020ADF893
:1024C0001000ADF8120040F6B830ADF8140000204E
:1024D000ADF8160004A94FF0804000F0CDFD70204B
:1024E000ADF800000120ADF802000220ADF80800B0
:1024F0000020ADF8060069464FF0804000F058FC1F
:102500007020ADF800000120ADF802000220ADF807
:1025100008000020ADF8060069464FF0804000F04A
:102520009DFC7020ADF800000120ADF802000220F3
:10253000ADF808000020ADF8060069464FF0804075
:1025400000F0ECFC7020ADF800000120ADF80200B6
:102550000220ADF808000020ADF8060069464FF0F3
:10256000804000F035FD0821C80600F06DFC082110
:10257000C80600F0C5FC0821C80600F01FFD0821B0
:10258000C80600F063FD00214FF0804000F06BFDB5
:1025900000214FF0804000F068FD00214FF08040A6
:1025A00000F065FD00214FF0804000F062FD012148
:1025B000880700F0D7FB07B000BD704729B1064A75
:1025C000D2690243044BDA6104E0034AD2698243D0
:1025D000014BDA61704700000010024029B1064A41
:1025E00092690243044B9A6104E0034A9269824370
:1025F000014B9A61704700000010024030B5002185
:102600000022002400232D4D6D6805F00C0121B13E
:10261000042905D0082923D105E0294D056022E0D1
:10262000274D05601FE0254D6D6805F47012234DA0
:102630006D6805F48034022505EB92421CB9214DEA
:10264000554305600BE01D4D6D6805F400351DB167
:102650001C4D5543056002E0194D5543056002E0ED
:10266000174D056000BF00BF144D6D6805F0F00107
:102670000909154D6B5C0568DD4045600F4D6D68BF
:1026800005F4E061090A104D6B5C4568DD4085602A
:102690000A4D6D6805F46051C90A0B4D6B5C4568C5
:1026A000DD40C560054D6D6805F44041890B074D5F
:1026B0006B5CC568B5FBF3F5056130BD00100240E9
:1026C00000127A0000093D005C0000206C00002030
:1026D0002DE9F047A548007800287DD0A448A549F9
:1026E0000A6802604A6842600A890281897A8172B6
:1026F00000209E4908709F48007855286CD1012021
:102700009D4908609B484078512804D0522864D0E5
:1027100053287DD1C4E096498978954AD27841EA18
:10272000022108B2FDF787FF80460022934BFDF798
:102730000EFF06460022924BFDF797FE0446FEF779
:102740001BF8904908608A490979894A527941EA17
:10275000022108B2FDF76FFF80460022874BFDF78C
:10276000F6FE06460022864BFDF77FFE0446FEF786
:1027700003F8844948607E4989797D4AD27941EAE3
:10278000022108B2FDF757FF804600227B4BFDF780
:10279000DEFE064600227A4BFDF767FE0446FDF793
:1027A000EBFF784988607249097A714A527A41EAA6
:1027B000022108B2FDF73FFF80460022724BFDF771
:1027C000C6FE06460022714BFDF7A8FD0446FDF744
:1027D000D3FF6F490860C5E0C5E065498978644A60
:1027E000D27841EA022108B2FDF725FF8046002297
:1027F000624BFDF7ACFE06460022664BFDF735FE48
:102800000446FDF7B9FF644908605949097900E0B9
:10281000A7E0574A527941EA022108B2FDF70BFFBF
:1028200080460022554BFDF792FE06460022594B8A
:10283000FDF71BFE0446FDF79FFF574948604C49D2
:1028400089794B4AD27941EA022108B2FDF7F3FEB9
:1028500006460022494BFDF77AFE044600224D4B06
:10286000FDF703FE8046FDF787FF4B49886040492E
:10287000097A3F4A527A41EA022108B2FDF7DBFEAB
:1028800080460022404BFDF762FE064600223F4B89
:10289000FDF744FD0446FDF76FFF3D49086061E028
:1028A00033498978324AD27841EA022108B2FDF7E9
:1028B000C2FE06460022314BFDF749FE04460022C7
:1028C000364BFDF7D2FD8046FDF756FF34490860D0
:1028D00027490979264A527941EA022108B2FDF7CF
:1028E000AAFE80460022254BFDF731FE0646002257
:1028F0002A4BFDF7BAFD0446FDF73EFF2849486024
:102900001B4989791A4AD27941EA022108B2FDF7B6
:1029100092FE06460022194BFDF719FE04460022DE
:102920001E4BFDF7A2FD8046FDF726FF1C4988607F
:102930000F49097A0E4A527A41EA022108B2FDF79C
:102940007AFE06460022104BFDF701FE04460022E7
:102950000E4BFDF7E3FC8046FDF70EFF0C490860C7
:1029600000E000BF00BFBDE8F087000004000020C9
:102970008A00002074000020988121420000E0407D
:1029800000003040B0000020004075400020424070
:102990000000002000409F40A4000020008066400E
:1029A00098000020704710B500F002F810BD00003C
:1029B0000CB50020019000903348006840F480304E
:1029C0003149086000BF3048006800F400300090D2
:1029D0000198401C0190009818B90198B0F5A06FBB
:1029E000F1D12948006800F4003010B101200090B6
:1029F00001E0002000900098012843D1234800689E
:102A000040F01000214908600846006820F00300EB
:102A100008600846006840F0020008601A484068F4
:102A2000194948600846406848600846406840F4D4
:102A3000806048600846406820F47C104860084682
:102A4000406840F4E81048600846006840F0807034
:102A5000086000BF0C48006800F000700028F9D042
:102A60000948406820F0030007494860084640686C
:102A700040F00200486000BF0348406800F00C00CE
:102A80000828F9D10CBD00000010024000200240CF
:102A9000042808D14FF0E021096941F004014FF00A
:102AA000E022116107E04FF0E021096921F0040103
:102AB0004FF0E0221161704710B51348006840F0F4
:102AC00001001149086008464068104908400E4955
:102AD0004860084600680E4908400B4908600846EF
:102AE000006820F4802008600846406820F4FE005A
:102AF00048604FF41F008860FFF755FF4FF00060FB
:102B00000449086010BD0000001002400000FFF8FA
:102B1000FFFFF6FE08ED00E07FB504460D460121FB
:102B2000C802FFF75BFDADF804500020ADF80600C9
:102B3000ADF80840ADF80A008DF80C0001A90D4869
:102B400000F09AFA01210B4800F006F90122114623
:102B5000084800F024F919208DF8000002208DF8B3
:102B600001008DF8020001208DF803006846FEF791
:102B7000BDFF7FBD002C014010B50A480088401CF5
:102B800008490880084600880A2190FBF1F201FB01
:102B9000120008B9FEF728F80121034800F0DFF819
:102BA00010BD00000E000020002C01407FB504463F
:102BB0000D4601210820FFF701FDADF8045000206B
:102BC000ADF80600ADF80840ADF80A008DF80C002D
:102BD00001A90D4800F050FA01210B4800F0BCF8A3
:102BE00001221146084800F0DAF832208DF8000082
:102BF00000208DF801008DF8020001208DF80300FF
:102C00006846FEF773FF7FBD000C00402DE9F047DA
:102C10000024A146A24620204549086001214548DC
:102C200000F0ACF801287CD1012240F22551424845
:102C300000F043FB00BF16E0FFF74AFD3F48D0F825
:102C400000A0D0F8049051463D480068FDF79EFA78
:102C50003B49086049463B480068FDF797FA394907
:102C60000860601CC4B2032CE6DB36480068FDF740
:102C70003FFD07460022344BFDF769FC0546FDF792
:102C80007BFD81462E480068FDF732FD0546002297
:102C90002D4BFDF75CFC0746FDF76EFD82460020DC
:102CA00028490860264908602848C0F804A0284838
:102CB000C0F80490254A91685068FDF7B9FA234995
:102CC0008862084640688860214A91685068FDF72C
:102CD000AFFA1F4988620846406888601D4800783E
:102CE000072818D2DFE800F01704070A0D111400B6
:102CF000FEF7A8FA10E0FEF75FFB0DE0FEF71CFC04
:102D00000AE0FEF737FD07E00BE0FEF7CDFD03E03C
:102D1000FEF7A6FE00E000BF00BF0121054800F05D
:102D20001EF820200249091D0860BDE8F087000058
:102D300010180140000C00400038014098000020AD
:102D4000140000201000002000000840BC000020FB
:102D5000FC0000200C000020CA4302827047CA43D6
:102D60000282704721B1028842F00102028004E031
:102D700002884FF6FE731A400280704730B5024653
:102D8000002000230024158A05EA0103958905EA3D
:102D9000010413B10CB1012000E0002030BD1AB1D4
:102DA00083890B43838102E083898B43838170474E
:102DB00070B5002400220023058C4FF6FE763540C6
:102DC0000584028C8388048B4FF68F752C40B51ECA
:102DD0002C400D882C43751E2A400D892A434D88AE
:102DE0002A43144DA8420BD0134DA84208D0134DCE
:102DF000A84205D0124DA84202D0124DA84213D1CC
:102E00004FF6F7752A404D892A434FF6FB752A4045
:102E10008D882A434FF6FF652B404FF6FF552B4018
:102E20008D892B43CD892B4383800483CD88858670
:102E3000028470BD002C014000340140004001407C
:102E400000440140004801400A460021018B4FF632
:102E5000F7731940114301837047000070B50024D7
:102E600000220023058C4FF6EF7635400584028C56
:102E70008388048B48F6FF752C404FF6FF452C40A5
:102E80000D884FF6FF7606EA05252C434FF6DF75D1
:102E90002A400D8906EA05152A434D8806EA0515DC
:102EA0002A43154DA84202D0144DA8421DD14FF619
:102EB0007F752A404D894FF6FF7606EA05152A43AD
:102EC0004FF6BF752A408D8806EA05152A434FF64E
:102ED000FF352B404FF2FF752B408D8906EA8505A3
:102EE0002B43CD8906EA85052B4383800483CD8857
:102EF0000587028470BD0000002C014000340140B1
:102F00000A460021018B4FF2FF7319404FF6FF7301
:102F100003EA0223194301837047000070B50024BF
:102F200000220023058C4FF6FF6635400584028C95
:102F30008388848B4FF68F752C404FF6FC752C40A0
:102F40000D882C434FF6FF552A400D894FF6FF762A
:102F500006EA05252A434D8806EA05252A43154D2C
:102F6000A84202D0144DA8421DD14FF2FF752A404D
:102F70004D894FF6FF7606EA05252A434FF6FF35C1
:102F80002A408D8806EA05252A434EF6FF752B4018
:102F90004DF6FF752B408D8906EA05152B43CD892B
:102FA00006EA05152B4383808483CD8885870284B8
:102FB00070BD0000002C0140003401400A46002191
:102FC000818B4FF6F77319401143818370470000DE
:102FD00070B5002200230024058C4EF6FF763540A4
:102FE0000584038C8488828B48F6FF752A404FF64F
:102FF000FF452A400D884FF6FF7606EA05252A434D
:103000004DF6FF752B400D8906EA05352B434D889B
:1030100006EA05352B430B4DA84202D00A4DA842C3
:1030200008D14BF6FF752C408D894FF6FF7606EAE6
:1030300085152C4384808283CD88A0F8405003847A
:1030400070BD0000002C0140003401400A46002100
:10305000818B4FF2FF7319404FF6FF7303EA02238F
:103060001943818370478186704701877047818744
:103070007047A0F840107047002202881D4B98420C
:103080000ED01D4B98420BD0B0F1804F08D01B4B97
:10309000984205D01A4B984202D01A4B984204D15C
:1030A0004FF68F731A404B881A43174B984207D03C
:1030B000164B984204D04FF6FF431A40CB881A4370
:1030C00002808B8883850B8803850A4B98420BD03E
:1030D000094B984208D00E4B984205D00D4B9842B0
:1030E00002D00D4B984201D10B7A038601238382D3
:1030F00070470000002C01400034014000040040F3
:1031000000080040000C0040001000400014004087
:1031100000400140004401400048014000B587B034
:1031200001218803FFF75AFA01210520FFF756FA1B
:103130004FF40070ADF8180018208DF81B00032024
:103140008DF81A0006A91D48FDF7B3FC4FF4806006
:10315000ADF8180004208DF81B0048208DF81B00E6
:1031600006A91648FDF7A5FC4FF4E13002900020B7
:10317000ADF80C00ADF80E00ADF81000ADF814007D
:103180000C20ADF8120002A90D4800F0BBF8252074
:103190008DF8040001208DF805008DF806008DF8EB
:1031A000070001A8FEF7A2FC0121054800F04FF836
:1031B0004021034800F042F807B000BD000801407C
:1031C0000038014010B540F22551174800F04BF887
:1031D00038B3154800F002F91449154A127888549A
:1031E0001348007820B908460078552800D010BD53
:1031F0000F480078401C0E490870084600780B28DC
:103200000FD10C4809490A6802604A6842600A897D
:103210000281897A817200200549087001200649DF
:10322000087000BFE3E70000003801408A0000207A
:1032300005000020740000200400002001F400724A
:10324000B2F5007F00D100BFCA430280704721B1B0
:10325000828942F40052828104E082894DF6FF7334
:103260001A408281704770B5024600240023002571
:10327000002040F66A16B14200D100BFC1F34215EA
:1032800001F01F03012606FA03F3012D02D19689EE
:10329000334006E0022D02D1168A334001E0968ABF
:1032A00033400C12012606FA04F41688344013B198
:1032B0000CB1012000E0002070BDF0B503460024F1
:1032C00000260025002040F66A17B94200D100BF51
:1032D0001846C1F3421401F01F06012707FA06F54C
:1032E000012C01D10C3004E0022C01D1103000E09F
:1032F00014301AB107682F43076002E00768AF4334
:103300000760F0BD2DE9F04786B005460E46002463
:10331000A24600BFA1460027B08900B100BF2F46DA
:103320002C8A4CF6FF700440F08804432C82AC8950
:103330004EF6F3100440B088318908437189084380
:103340000443AC81AC8A4FF6FF400440B08904438B
:10335000AC8201A8FFF752F91F48874202D1DDF87D
:1033600010A001E0DDF80CA0A88900F4004040B1F5
:103370000AEBCA0000EB0A1031684900B0FBF1F813
:1033800007E00AEBCA0000EB0A1031688900B0FBC5
:10339000F1F86420B8FBF0F004012009642101FB7E
:1033A0001089A88900F4004040B1322000EBC90028
:1033B000B0FBF1F000F00700044308E0322000EB1E
:1033C00009106421B0FBF1F000F00F0004432C81E0
:1033D00006B0BDE8F087000000380140014688884B
:1033E000C0F30800704700BFFEE7490050EAC12063
:1033F00018BF04204A0D18BF40F0010040F2FF72D0
:10340000B2EB515F08BF40F00200012808BF052061
:10341000704700002DE9F74F144694B00021C4E92D
:1034200002111599079121F00045C9498D4206DC2A
:103430001599C4E9000117B00020BDE8F08FC54917
:10344000DFF814A3A9423CDD0799C44E0029C44FFC
:10345000C44A1599534619DDFDF701F8554506D0C4
:10346000C14AC24BFCF7FBFFC4E900010AE04FF080
:10347000D352BE4BFCF7F3FF32463B46FCF7EFFF5F
:10348000C4E9000117B00120BDE8F08FFCF746FF4A
:10349000554506D0B44AB54BFCF740FFC4E90001DE
:1034A0000AE04FF0D352B14BFCF738FF32463B46AF
:1034B000FCF734FFC4E9000117B04FF0FF30BDE85E
:1034C000F08FAB49A942159978DB21F00041834682
:1034D0008846A84AA84BFCF7C8FF0022A74BFCF778
:1034E0001DFFFDF7E6F80990FDF7A5F806460F4623
:1034F0009C4A5346FCF7B9FF43465A46FCF7B2FFD5
:1035000080468A46984A994B30463946FCF7ADFFCB
:103510002A0D01250B9242465346FCF7A3FF032DCB
:10352000C4E9000139D00B98C1F30A51401A05EBE8
:1035300045111139814230DA9148C346784400EB95
:103540000510CDF80CA00C90D0E900233046394688
:10355000FCF78BFF02460B460491069058460399F0
:10356000FCF77DFF80468A4602460B465846039983
:10357000FCF775FF049B069AFCF771FF83460C98D5
:1035800003913946D0E902233046FCF76EFF5A46D4
:10359000039BFCF764FF6D1CBDE707980028A2BFE2
:1035A000099817B0BDE8F08F616881F00041616053
:1035B000099817B04042BDE8F08FFFE784461598A0
:1035C000C1F31301C0F30A50A0F2F5304FEA6018BE
:1035D00000F01F06C6F1200013900020069007900F
:1035E00041F4801E05206D4676B1664A08EB000165
:1035F0007A4452F8213002EB8101B3404A681399B2
:1036000022FA01F1194305E05F4908EB0002794411
:1036100051F82210A1FB0E27A1FB0C131A449A4269
:1036200034BF0123002303EB070A05EB8003D3E932
:1036300001B70F448F4234BF0121002193448B44D2
:1036400011B1934502D903E0934501D2012100E075
:103650000021C3E901B7514445F82010011EA0F133
:103660000100C1DC0298059F00F10050800F12900C
:103670000298DDE903568000FCF7DDFF834628460B
:103680000D91FDF783F96FF01D02FDF756F9CDE9B5
:103690000E013046FDF77AF96FF03D02FDF74DF966
:1036A00080468A463846FDF771F96FF05D02FDF7F6
:1036B00044F90746424653461191FCF72FFEDDE9D7
:1036C0000E23FCF72BFE5A460D9BFCF727FE002528
:1036D0000E465A4628460D9BFCF7C1FEDDE90E2337
:1036E000FCF7BDFE42465346FCF7B9FE3A46119B35
:1036F000FCF7B8FEDFF898A0244A5346FCF7B5FE65
:1037000007468846234A244B31462846FCF7ADFE3F
:103710003A464346FCF702FE074688464FF0A84269
:10372000534631462846FCF7A0FE3A464346FCF78E
:10373000F5FD159A12F0004F04D0129A81F0004165
:1037400052421292C4E90001129817B0BDE8F08FFE
:10375000FB21E93F7CD90240FB21F93F7370032E26
:103760008A19A33B000040543163621A61B4D03D12
:10377000FB21394183C8C96D305FE43F0000E03F61
:10378000C80C0000440C0000260C0000182D445406
:10379000FB21F93D3326A611460B113C2DE9FF4DC7
:1037A00021F0004807460C46B8F1795F08DAFCF7CB
:1037B00080FF002801BF0020324904B0BDE8F08D31
:1037C0003A46234610461946FCF74FFE0546024688
:1037D0002D480E460B460621784400F05DF82A4637
:1037E0003346FCF742FEDDE9022382468B4638462B
:1037F0002146FCF73AFE04460F4652465B462846F1
:103800003146FCF732FE22463B46FCF728FE0746CF
:103810008A464FF0FF3228463146FDF78EF81B4AA4
:1038200090450ADA3A465346FCF719FE04B00022E6
:10383000BDE8F04D134BFCF715BE154A4245A8BF35
:10384000A8F500154FF00004B8BF124D22462B46D4
:10385000FCF705FE0646884622462B46002009490D
:10386000FCF7FDFD04460D463A46534630464146B8
:10387000FCF7F5FD04B022462B46BDE8F04DFCF701
:10388000F1BD00000000F03FFC0900003333D33FDE
:103890000000E93F0000D23F2DE9F0414F1E00EB50
:1038A000C7010446D1E9000115461E4637F006025D
:1038B0000DD02A463346FCF7D8FD7F1E04EBC70324
:1038C000D3E90023FCF72AFD37F00602F1D1022FDD
:1038D00025D0042F13D0062F18BFBDE8F0812A464B
:1038E0003346FCF7C2FDD4E90A23FCF717FD2A464C
:1038F0003346FCF7BAFDD4E90823FCF70FFD2A464E
:103900003346FCF7B2FDD4E90623FCF707FD2A464F
:103910003346FCF7AAFDD4E90423FCF7FFFC2A4652
:103920003346FCF7A2FDD4E90223FCF7F7FC2A4654
:103930003346FCF79AFDD4E90023BDE8F041FCF7DB
:10394000EDBC00002DE9FF4D054621F0004084B09C
:103950000C46B0F1795F0BDA2846FFF746FD0428E4
:1039600008BF00F06FF8284608B02146BDE8F08D8A
:103970002A460B461046FCF778FD06460F462A46B7
:103980002346FCF772FD804626488A4632463B466F
:1039900005217844FFF780FF83461098029160B3B9
:1039A000214A224B40465146FCF75FFDCDE900011C
:1039B0005A4640465146029BFCF757FD82468846D0
:1039C000DDE906014FF0FF32FCF7B7FF52464346F0
:1039D000FCF745FD32463B46FCF747FDDDE9062393
:1039E000FCF73DFDDDE90023FCF739FD08B02A4670
:1039F0002346BDE8F04DFCF735BD0B465A46304630
:103A00003946FCF732FD084A084BFCF787FC424672
:103A10005346FCF72AFD08B02A462346BDE8F04D80
:103A2000FCF77CBC3A090000495555555555C5BFB2
:103A30000122FCF782BF0022134610461146FCF714
:103A400086BD0000024A00201107FCF776BF000087
:103A500001FDFFFF02E008C8121F08C1002AFAD1C9
:103A600070477047002001E001C1121F002AFBD1FE
:103A70007047000001490860704700007000002096
:103A80002DE9F84F04460D4621F00040009173499E
:103A9000814211DC7249884201DC06D12CB12046FA
:103AA0002946BDE8F84FFFF7C3BF6E48002DCCBFD5
:103AB0006D496E49BDE8F88F6D49814211DD6D4950
:103AC0008142D8BF4FF0FF366DDD20462946FFF713
:103AD0008CFC042808BFFFF7B5FF20462946BDE847
:103AE000F88F6549654F25F00045814233DD644913
:103AF000814219DD002632464FF080432046294698
:103B0000FCF70CFC80468A46012220462946FCF739
:103B100014FF00223B46FCF7A2FC42465346FCF74A
:103B200016FD04460D463EE001260022BA463B46FD
:103B300020462946FCF7F2FB80460F4600225346FA
:103B400020462946FCF78BFC42463B46FCF7FFFC2F
:103B500004460D4627E04B4981421BDDDFF828A1D2
:103B600002260022534620462946FCF77EFC00220E
:103B70003B46FCF7D3FB80460F46002253462046C7
:103B80002946FCF76CFC42463B46FCF7E0FC044649
:103B90000D4608E0032622462B4600203B49FCF751
:103BA000D6FC04460D4622462B4610461946FCF725
:103BB0005CFC8B46824602460B46FCF756FC0746E9
:103BC0000246334888460B4606217844FFF764FED8
:103BD00052465B46FCF749FC82462E488B463A46E5
:103BE000434605217844FFF757FE3A464346FCF723
:103BF0003CFC02460B46002E504659460CDAFCF7B8
:103C00008DFB22462B46FCF730FC01B022462B46AA
:103C1000BDE8F04FFCF726BCFCF780FB22462B46A4
:103C2000FCF723FC1C4A7A4402EBC603D3E90023C9
:103C3000FCF715FC22462B46FCF711FC174A7A4488
:103C400002EBC603D3E90023FCF70CFC009A002A20
:103C5000B8BF81F00041BDE8F88F000000001044BB
:103C60000000F07F182D4454FB21F93FFB21F9BFE0
:103C70000000DC3F0000203E0000F33F0000F03F6A
:103C80000000E63F008003400000F83F0000F0BF66
:103C9000DA0500009805000036050000FE0400006B
:103CA00000B5244B21F0004287B09A42DCBF0022CD
:103CB000134629DD204B9A4208D140B94FF001004C
:103CC000FFF7D8FEFFF7B7FE07B000BD03DBFFF735
:103CD000AFFE07B000BD02AAFFF79CFB10F0030186
:103CE00004BF0DF1080C9CE80F000DD00120012944
:103CF0000ED0022914D00DF1080C00909CE80F00A2
:103D0000FFF720FE07B000BDFFF748FD07B000BD7C
:103D10000DF1080C00909CE80F00FFF713FE05E082
:103D20000DF1080C9CE80F00FFF738FD07B081F09B
:103D3000004100BDFB21E93F0000F07F0146114A30
:103D400012784A434FF0E0235A6100229A611A46E2
:103D5000126942F001021A6100BF4FF0E0221069BF
:103D600000F001021AB100F48032002AF5D04FF0C1
:103D7000E022126922F001024FF0E0231A610022D2
:103D80009A6170472000002070B504460D46214618
:103D90004FF07840FDF778F905F13000C1B24FF0EF
:103DA0007A40FDF771F970BD10B504464FF47A7092
:103DB00094FBF0F0294908704FF47A7094FBF0F10D
:103DC00000FB1140642190FBF1F02449487064200D
:103DD00094FBF0F100FB11400A2190FBF1F01F4928
:103DE00088700A2094FBF0F100FB11401B49C87059
:103DF0008C214FF07840FDF747F9184800783030B3
:103E0000C1B24FF07A40FDF73FF98D214FF0784075
:103E1000FDF73AF9114840783030C1B24FF07A409E
:103E2000FDF732F98E214FF07840FDF72DF90B4860
:103E300080783030C1B24FF07A40FDF725F98F21FC
:103E40004FF07840FDF720F90448C0783030C1B217
:103E50004FF07A40FDF718F910BD00002400002053
:103E600010B504464FF47A7094FBF0F029490870BD
:103E70004FF47A7094FBF0F100FB1140642190FB49
:103E8000F1F024494870642094FBF0F100FB1140EC
:103E90000A2190FBF1F01F4988700A2094FBF0F191
:103EA00000FB11401B49C87094214FF07840FDF78A
:103EB000EBF8184800783030C1B24FF07A40FDF787
:103EC000E3F895214FF07840FDF7DEF8114840788F
:103ED0003030C1B24FF07A40FDF7D6F896214FF05E
:103EE0007840FDF7D1F80B4880783030C1B24FF000
:103EF0007A40FDF7C9F897214FF07840FDF7C4F8F4
:103F00000448C0783030C1B24FF07A40FDF7BCF8B9
:103F100010BD00002400002010B504464FF47A7054
:103F200094FBF0F0284908704FF47A7094FBF0F19C
:103F300000FB1140642190FBF1F02349487064209C
:103F400094FBF0F100FB11400A2190FBF1F01E49B7
:103F500088700A2094FBF0F100FB11401A49C870E8
:103F60009C214FF07840FDF78FF8174800783030EB
:103F7000C1B24FF07A40FDF787F89D214FF07840AD
:103F8000FDF782F8104840783030C1B24FF07A40E7
:103F9000FDF77AF89E214FF07840FDF775F80A4852
:103FA00080783030C1B24FF07A40FDF76DF89F2134
:103FB000C806FDF769F80448C0783030C1B24FF048
:103FC0007A40FDF761F810BD24000020FCF7ECFCFE
:103FD00031E019480078012802D1184908702AE018
:103FE00017480078012803D102201449087022E004
:103FF00014480078012803D10320104908701AE002
:1040000011480078012803D104200C49087012E0FF
:104010000E480078012803D10520084908700AE0FD
:104020000B480078012803D106200449087002E0FB
:10403000002002490870CCE7190000200C00002085
:104040001A0000201B0000201C0000201D00002082
:104050001E00002000B5254B21F0004287B09A4297
:1040600003DC0022134600922BE0214B9A4208D138
:1040700040B94FF00100FFF7FDFCFFF7DCFC07B093
:1040800000BD03DBFFF7D4FC07B000BD02AAFFF7B9
:10409000C1F910F003014FF001000DD0012914D037
:1040A00002291AD00DF1080C9CE80F00FFF776FBEF
:1040B00007B081F0004100BD0DF1080C00909CE8B4
:1040C0000F00FFF73FFC07B000BD0DF1080C9CE8A6
:1040D0000F00FFF763FB07B000BD0DF1080C009067
:1040E0009CE80F00FFF72EFCE2E70000FB21E93F10
:1040F0000000F07F00000000CDCCCCBDCDCC4CBD8D
:1041000000000000000000000000000000000000AF
:10411000000000000000000000000000000000009F
:10412000000000000000000000000000CDCC4C3D6D
:10413000CDCC4C3DCDCC4C3D295C8F3D00000000EA
:104140004FBB610567ACDD3F182D4454FB21E93FAF
:104150009BF681D20B73EF3F182D4454FB21F93F9E
:10416000E2652F227F2B7A3C075C143326A6813C24
:10417000BDCBF07A8807703C075C143326A6913CCF
:10418000C4EB98999999C9BF711623FEC671BCBF3B
:104190006D9A74AFF2B0B3BF9AFDDE522DDEADBFA3
:1041A0002F6C6A2C44B4A2BF0D5555555555D53FBB
:1041B000FF8300922449C23F6E204CC5CD45B73FD6
:1041C000513DD0A0660DB13FEB0D76244B7BA93F4E
:1041D00011DA22E33AAD903F4C5555555555A53F60
:1041E0007751C1166CC156BF9015CB19A001FA3E8C
:1041F000AD529C804F7E92BEC4B1B4BD9EEE213EB6
:10420000D43888BEE9FAA8BD00004054FB21F93F2C
:104210003163621A61B4D03D0000601A61B4D03DD0
:104220007370032E8A19A33B0000002E8A19A33B4A
:10423000C14920259A837B3900000000000000005E
:104240006E83F9A22915444ED15727FCC0DD34F501
:10425000999562DB4190433CAB6351FE61C5BBDE87
:104260003A6E24B7E0D24D42EA2E49061C92D1099B
:104270001CEB1DFE3EA729B1F53582E88444BB2E18
:1042800026709CE9417E5FB439D69139F439538365
:104290008B5F849C3B28F9BDFF97F81F0F9805DEC4
:1042A0008B112FEF1F6D0A5ACF7E366DB709CB27C2
:1042B000663F464F2DEA5F9EC7BA27757BF1E5EB57
:1042C000F739073DEA92528AB15FFB6B085D8D1F9B
:1042D000A6F810111111813FD561C119A0012ABFA3
:1042E0007DFEB157E31DC73EEB9C2B8AE6E55ABE27
:1042F0007CD5CF5A3AD9E53D18430008000000208C
:1043000074000000543A00088C4300087400002038
:10431000DCF50000643A0008000000000000000026
:10432000000000000000000000000000000000008D
:10433000000000000000000000000000000000007D
:10434000000000000000000000002042000000000B
:10435000000000000000000000000000000000005D
:1043600000A24A0400000000000000000102030453
:10437000060708090000000001020304010203040B
:0C438000060708090204060800000000FF
:0400000508000145A9
:00000001FF
